{
	"contracts/BlockchainMsgSender.sol": {
		"BlockchainMsgSender": {
			"abi": [
				{
					"inputs": [],
					"stateMutability": "nonpayable",
					"type": "constructor"
				},
				{
					"inputs": [],
					"name": "changeCount",
					"outputs": [
						{
							"internalType": "uint8",
							"name": "",
							"type": "uint8"
						}
					],
					"stateMutability": "view",
					"type": "function"
				},
				{
					"inputs": [
						{
							"internalType": "string",
							"name": "_newMessage",
							"type": "string"
						}
					],
					"name": "changeMessage",
					"outputs": [],
					"stateMutability": "nonpayable",
					"type": "function"
				},
				{
					"inputs": [],
					"name": "message",
					"outputs": [
						{
							"internalType": "string",
							"name": "",
							"type": "string"
						}
					],
					"stateMutability": "view",
					"type": "function"
				},
				{
					"inputs": [],
					"name": "owner",
					"outputs": [
						{
							"internalType": "address",
							"name": "",
							"type": "address"
						}
					],
					"stateMutability": "view",
					"type": "function"
				}
			],
			"devdoc": {
				"kind": "dev",
				"methods": {},
				"version": 1
			},
			"evm": {
				"assembly": "    /* \"contracts/BlockchainMsgSender.sol\":58:414  contract BlockchainMsgSender{... */\n  mstore(0x40, 0x80)\n    /* \"contracts/BlockchainMsgSender.sol\":180:228  constructor(){... */\n  callvalue\n  dup1\n  iszero\n  tag_1\n  jumpi\n  0x00\n  dup1\n  revert\ntag_1:\n  pop\n    /* \"contracts/BlockchainMsgSender.sol\":211:221  msg.sender */\n  caller\n    /* \"contracts/BlockchainMsgSender.sol\":203:208  owner */\n  0x00\n  0x01\n    /* \"contracts/BlockchainMsgSender.sol\":203:221  owner = msg.sender */\n  0x0100\n  exp\n  dup2\n  sload\n  dup2\n  0xffffffffffffffffffffffffffffffffffffffff\n  mul\n  not\n  and\n  swap1\n  dup4\n  0xffffffffffffffffffffffffffffffffffffffff\n  and\n  mul\n  or\n  swap1\n  sstore\n  pop\n    /* \"contracts/BlockchainMsgSender.sol\":58:414  contract BlockchainMsgSender{... */\n  dataSize(sub_0)\n  dup1\n  dataOffset(sub_0)\n  0x00\n  codecopy\n  0x00\n  return\nstop\n\nsub_0: assembly {\n        /* \"contracts/BlockchainMsgSender.sol\":58:414  contract BlockchainMsgSender{... */\n      mstore(0x40, 0x80)\n      callvalue\n      dup1\n      iszero\n      tag_1\n      jumpi\n      0x00\n      dup1\n      revert\n    tag_1:\n      pop\n      jumpi(tag_2, lt(calldatasize, 0x04))\n      shr(0xe0, calldataload(0x00))\n      dup1\n      0x60fd1c4f\n      eq\n      tag_3\n      jumpi\n      dup1\n      0x8da5cb5b\n      eq\n      tag_4\n      jumpi\n      dup1\n      0xe21f37ce\n      eq\n      tag_5\n      jumpi\n      dup1\n      0xf35f6447\n      eq\n      tag_6\n      jumpi\n    tag_2:\n      0x00\n      dup1\n      revert\n        /* \"contracts/BlockchainMsgSender.sol\":234:411  function changeMessage(string memory _newMessage) public{... */\n    tag_3:\n      tag_7\n      0x04\n      dup1\n      calldatasize\n      sub\n      dup2\n      add\n      swap1\n      tag_8\n      swap2\n      swap1\n      tag_9\n      jump\t// in\n    tag_8:\n      tag_10\n      jump\t// in\n    tag_7:\n      stop\n        /* \"contracts/BlockchainMsgSender.sol\":124:144  address public owner */\n    tag_4:\n      tag_11\n      tag_12\n      jump\t// in\n    tag_11:\n      mload(0x40)\n      tag_13\n      swap2\n      swap1\n      tag_14\n      jump\t// in\n    tag_13:\n      mload(0x40)\n      dup1\n      swap2\n      sub\n      swap1\n      return\n        /* \"contracts/BlockchainMsgSender.sol\":151:172  string public message */\n    tag_5:\n      tag_15\n      tag_16\n      jump\t// in\n    tag_15:\n      mload(0x40)\n      tag_17\n      swap2\n      swap1\n      tag_18\n      jump\t// in\n    tag_17:\n      mload(0x40)\n      dup1\n      swap2\n      sub\n      swap1\n      return\n        /* \"contracts/BlockchainMsgSender.sol\":93:117  uint8 public changeCount */\n    tag_6:\n      tag_19\n      tag_20\n      jump\t// in\n    tag_19:\n      mload(0x40)\n      tag_21\n      swap2\n      swap1\n      tag_22\n      jump\t// in\n    tag_21:\n      mload(0x40)\n      dup1\n      swap2\n      sub\n      swap1\n      return\n        /* \"contracts/BlockchainMsgSender.sol\":234:411  function changeMessage(string memory _newMessage) public{... */\n    tag_10:\n        /* \"contracts/BlockchainMsgSender.sol\":321:331  msg.sender */\n      caller\n        /* \"contracts/BlockchainMsgSender.sol\":312:331  owner == msg.sender */\n      0xffffffffffffffffffffffffffffffffffffffff\n      and\n        /* \"contracts/BlockchainMsgSender.sol\":312:317  owner */\n      0x00\n      0x01\n      swap1\n      sload\n      swap1\n      0x0100\n      exp\n      swap1\n      div\n      0xffffffffffffffffffffffffffffffffffffffff\n      and\n        /* \"contracts/BlockchainMsgSender.sol\":312:331  owner == msg.sender */\n      0xffffffffffffffffffffffffffffffffffffffff\n      and\n      sub\n        /* \"contracts/BlockchainMsgSender.sol\":309:405  if(owner == msg.sender){... */\n      tag_24\n      jumpi\n        /* \"contracts/BlockchainMsgSender.sol\":356:367  _newMessage */\n      dup1\n        /* \"contracts/BlockchainMsgSender.sol\":346:353  message */\n      0x01\n        /* \"contracts/BlockchainMsgSender.sol\":346:367  message = _newMessage */\n      swap1\n      dup2\n      tag_25\n      swap2\n      swap1\n      tag_26\n      jump\t// in\n    tag_25:\n      pop\n        /* \"contracts/BlockchainMsgSender.sol\":381:392  changeCount */\n      0x00\n      dup1\n        /* \"contracts/BlockchainMsgSender.sol\":381:394  changeCount++ */\n      dup2\n      dup2\n      swap1\n      sload\n      swap1\n      0x0100\n      exp\n      swap1\n      div\n      0xff\n      and\n      dup1\n      swap3\n      swap2\n      swap1\n      tag_27\n      swap1\n      tag_28\n      jump\t// in\n    tag_27:\n      swap2\n      swap1\n      0x0100\n      exp\n      dup2\n      sload\n      dup2\n      0xff\n      mul\n      not\n      and\n      swap1\n      dup4\n      0xff\n      and\n      mul\n      or\n      swap1\n      sstore\n      pop\n      pop\n        /* \"contracts/BlockchainMsgSender.sol\":309:405  if(owner == msg.sender){... */\n    tag_24:\n        /* \"contracts/BlockchainMsgSender.sol\":234:411  function changeMessage(string memory _newMessage) public{... */\n      pop\n      jump\t// out\n        /* \"contracts/BlockchainMsgSender.sol\":124:144  address public owner */\n    tag_12:\n      0x00\n      0x01\n      swap1\n      sload\n      swap1\n      0x0100\n      exp\n      swap1\n      div\n      0xffffffffffffffffffffffffffffffffffffffff\n      and\n      dup2\n      jump\t// out\n        /* \"contracts/BlockchainMsgSender.sol\":151:172  string public message */\n    tag_16:\n      0x01\n      dup1\n      sload\n      tag_29\n      swap1\n      tag_30\n      jump\t// in\n    tag_29:\n      dup1\n      0x1f\n      add\n      0x20\n      dup1\n      swap2\n      div\n      mul\n      0x20\n      add\n      mload(0x40)\n      swap1\n      dup2\n      add\n      0x40\n      mstore\n      dup1\n      swap3\n      swap2\n      swap1\n      dup2\n      dup2\n      mstore\n      0x20\n      add\n      dup3\n      dup1\n      sload\n      tag_31\n      swap1\n      tag_30\n      jump\t// in\n    tag_31:\n      dup1\n      iszero\n      tag_32\n      jumpi\n      dup1\n      0x1f\n      lt\n      tag_33\n      jumpi\n      0x0100\n      dup1\n      dup4\n      sload\n      div\n      mul\n      dup4\n      mstore\n      swap2\n      0x20\n      add\n      swap2\n      jump(tag_32)\n    tag_33:\n      dup3\n      add\n      swap2\n      swap1\n      0x00\n      mstore\n      keccak256(0x00, 0x20)\n      swap1\n    tag_34:\n      dup2\n      sload\n      dup2\n      mstore\n      swap1\n      0x01\n      add\n      swap1\n      0x20\n      add\n      dup1\n      dup4\n      gt\n      tag_34\n      jumpi\n      dup3\n      swap1\n      sub\n      0x1f\n      and\n      dup3\n      add\n      swap2\n    tag_32:\n      pop\n      pop\n      pop\n      pop\n      pop\n      dup2\n      jump\t// out\n        /* \"contracts/BlockchainMsgSender.sol\":93:117  uint8 public changeCount */\n    tag_20:\n      0x00\n      dup1\n      sload\n      swap1\n      0x0100\n      exp\n      swap1\n      div\n      0xff\n      and\n      dup2\n      jump\t// out\n        /* \"#utility.yul\":7:82   */\n    tag_35:\n        /* \"#utility.yul\":40:46   */\n      0x00\n        /* \"#utility.yul\":73:75   */\n      0x40\n        /* \"#utility.yul\":67:76   */\n      mload\n        /* \"#utility.yul\":57:76   */\n      swap1\n      pop\n        /* \"#utility.yul\":7:82   */\n      swap1\n      jump\t// out\n        /* \"#utility.yul\":88:205   */\n    tag_36:\n        /* \"#utility.yul\":197:198   */\n      0x00\n        /* \"#utility.yul\":194:195   */\n      dup1\n        /* \"#utility.yul\":187:199   */\n      revert\n        /* \"#utility.yul\":211:328   */\n    tag_37:\n        /* \"#utility.yul\":320:321   */\n      0x00\n        /* \"#utility.yul\":317:318   */\n      dup1\n        /* \"#utility.yul\":310:322   */\n      revert\n        /* \"#utility.yul\":334:451   */\n    tag_38:\n        /* \"#utility.yul\":443:444   */\n      0x00\n        /* \"#utility.yul\":440:441   */\n      dup1\n        /* \"#utility.yul\":433:445   */\n      revert\n        /* \"#utility.yul\":457:574   */\n    tag_39:\n        /* \"#utility.yul\":566:567   */\n      0x00\n        /* \"#utility.yul\":563:564   */\n      dup1\n        /* \"#utility.yul\":556:568   */\n      revert\n        /* \"#utility.yul\":580:682   */\n    tag_40:\n        /* \"#utility.yul\":621:627   */\n      0x00\n        /* \"#utility.yul\":672:674   */\n      0x1f\n        /* \"#utility.yul\":668:675   */\n      not\n        /* \"#utility.yul\":663:665   */\n      0x1f\n        /* \"#utility.yul\":656:661   */\n      dup4\n        /* \"#utility.yul\":652:666   */\n      add\n        /* \"#utility.yul\":648:676   */\n      and\n        /* \"#utility.yul\":638:676   */\n      swap1\n      pop\n        /* \"#utility.yul\":580:682   */\n      swap2\n      swap1\n      pop\n      jump\t// out\n        /* \"#utility.yul\":688:868   */\n    tag_41:\n        /* \"#utility.yul\":736:813   */\n      0x4e487b7100000000000000000000000000000000000000000000000000000000\n        /* \"#utility.yul\":733:734   */\n      0x00\n        /* \"#utility.yul\":726:814   */\n      mstore\n        /* \"#utility.yul\":833:837   */\n      0x41\n        /* \"#utility.yul\":830:831   */\n      0x04\n        /* \"#utility.yul\":823:838   */\n      mstore\n        /* \"#utility.yul\":857:861   */\n      0x24\n        /* \"#utility.yul\":854:855   */\n      0x00\n        /* \"#utility.yul\":847:862   */\n      revert\n        /* \"#utility.yul\":874:1155   */\n    tag_42:\n        /* \"#utility.yul\":957:984   */\n      tag_84\n        /* \"#utility.yul\":979:983   */\n      dup3\n        /* \"#utility.yul\":957:984   */\n      tag_40\n      jump\t// in\n    tag_84:\n        /* \"#utility.yul\":949:955   */\n      dup2\n        /* \"#utility.yul\":945:985   */\n      add\n        /* \"#utility.yul\":1087:1093   */\n      dup2\n        /* \"#utility.yul\":1075:1085   */\n      dup2\n        /* \"#utility.yul\":1072:1094   */\n      lt\n        /* \"#utility.yul\":1051:1069   */\n      0xffffffffffffffff\n        /* \"#utility.yul\":1039:1049   */\n      dup3\n        /* \"#utility.yul\":1036:1070   */\n      gt\n        /* \"#utility.yul\":1033:1095   */\n      or\n        /* \"#utility.yul\":1030:1118   */\n      iszero\n      tag_85\n      jumpi\n        /* \"#utility.yul\":1098:1116   */\n      tag_86\n      tag_41\n      jump\t// in\n    tag_86:\n        /* \"#utility.yul\":1030:1118   */\n    tag_85:\n        /* \"#utility.yul\":1138:1148   */\n      dup1\n        /* \"#utility.yul\":1134:1136   */\n      0x40\n        /* \"#utility.yul\":1127:1149   */\n      mstore\n        /* \"#utility.yul\":917:1155   */\n      pop\n        /* \"#utility.yul\":874:1155   */\n      pop\n      pop\n      jump\t// out\n        /* \"#utility.yul\":1161:1290   */\n    tag_43:\n        /* \"#utility.yul\":1195:1201   */\n      0x00\n        /* \"#utility.yul\":1222:1242   */\n      tag_88\n      tag_35\n      jump\t// in\n    tag_88:\n        /* \"#utility.yul\":1212:1242   */\n      swap1\n      pop\n        /* \"#utility.yul\":1251:1284   */\n      tag_89\n        /* \"#utility.yul\":1279:1283   */\n      dup3\n        /* \"#utility.yul\":1271:1277   */\n      dup3\n        /* \"#utility.yul\":1251:1284   */\n      tag_42\n      jump\t// in\n    tag_89:\n        /* \"#utility.yul\":1161:1290   */\n      swap2\n      swap1\n      pop\n      jump\t// out\n        /* \"#utility.yul\":1296:1604   */\n    tag_44:\n        /* \"#utility.yul\":1358:1362   */\n      0x00\n        /* \"#utility.yul\":1448:1466   */\n      0xffffffffffffffff\n        /* \"#utility.yul\":1440:1446   */\n      dup3\n        /* \"#utility.yul\":1437:1467   */\n      gt\n        /* \"#utility.yul\":1434:1490   */\n      iszero\n      tag_91\n      jumpi\n        /* \"#utility.yul\":1470:1488   */\n      tag_92\n      tag_41\n      jump\t// in\n    tag_92:\n        /* \"#utility.yul\":1434:1490   */\n    tag_91:\n        /* \"#utility.yul\":1508:1537   */\n      tag_93\n        /* \"#utility.yul\":1530:1536   */\n      dup3\n        /* \"#utility.yul\":1508:1537   */\n      tag_40\n      jump\t// in\n    tag_93:\n        /* \"#utility.yul\":1500:1537   */\n      swap1\n      pop\n        /* \"#utility.yul\":1592:1596   */\n      0x20\n        /* \"#utility.yul\":1586:1590   */\n      dup2\n        /* \"#utility.yul\":1582:1597   */\n      add\n        /* \"#utility.yul\":1574:1597   */\n      swap1\n      pop\n        /* \"#utility.yul\":1296:1604   */\n      swap2\n      swap1\n      pop\n      jump\t// out\n        /* \"#utility.yul\":1610:1764   */\n    tag_45:\n        /* \"#utility.yul\":1694:1700   */\n      dup3\n        /* \"#utility.yul\":1689:1692   */\n      dup2\n        /* \"#utility.yul\":1684:1687   */\n      dup4\n        /* \"#utility.yul\":1671:1701   */\n      calldatacopy\n        /* \"#utility.yul\":1756:1757   */\n      0x00\n        /* \"#utility.yul\":1747:1753   */\n      dup4\n        /* \"#utility.yul\":1742:1745   */\n      dup4\n        /* \"#utility.yul\":1738:1754   */\n      add\n        /* \"#utility.yul\":1731:1758   */\n      mstore\n        /* \"#utility.yul\":1610:1764   */\n      pop\n      pop\n      pop\n      jump\t// out\n        /* \"#utility.yul\":1770:2182   */\n    tag_46:\n        /* \"#utility.yul\":1848:1853   */\n      0x00\n        /* \"#utility.yul\":1873:1939   */\n      tag_96\n        /* \"#utility.yul\":1889:1938   */\n      tag_97\n        /* \"#utility.yul\":1931:1937   */\n      dup5\n        /* \"#utility.yul\":1889:1938   */\n      tag_44\n      jump\t// in\n    tag_97:\n        /* \"#utility.yul\":1873:1939   */\n      tag_43\n      jump\t// in\n    tag_96:\n        /* \"#utility.yul\":1864:1939   */\n      swap1\n      pop\n        /* \"#utility.yul\":1962:1968   */\n      dup3\n        /* \"#utility.yul\":1955:1960   */\n      dup2\n        /* \"#utility.yul\":1948:1969   */\n      mstore\n        /* \"#utility.yul\":2000:2004   */\n      0x20\n        /* \"#utility.yul\":1993:1998   */\n      dup2\n        /* \"#utility.yul\":1989:2005   */\n      add\n        /* \"#utility.yul\":2038:2041   */\n      dup5\n        /* \"#utility.yul\":2029:2035   */\n      dup5\n        /* \"#utility.yul\":2024:2027   */\n      dup5\n        /* \"#utility.yul\":2020:2036   */\n      add\n        /* \"#utility.yul\":2017:2042   */\n      gt\n        /* \"#utility.yul\":2014:2126   */\n      iszero\n      tag_98\n      jumpi\n        /* \"#utility.yul\":2045:2124   */\n      tag_99\n      tag_39\n      jump\t// in\n    tag_99:\n        /* \"#utility.yul\":2014:2126   */\n    tag_98:\n        /* \"#utility.yul\":2135:2176   */\n      tag_100\n        /* \"#utility.yul\":2169:2175   */\n      dup5\n        /* \"#utility.yul\":2164:2167   */\n      dup3\n        /* \"#utility.yul\":2159:2162   */\n      dup6\n        /* \"#utility.yul\":2135:2176   */\n      tag_45\n      jump\t// in\n    tag_100:\n        /* \"#utility.yul\":1854:2182   */\n      pop\n        /* \"#utility.yul\":1770:2182   */\n      swap4\n      swap3\n      pop\n      pop\n      pop\n      jump\t// out\n        /* \"#utility.yul\":2202:2542   */\n    tag_47:\n        /* \"#utility.yul\":2258:2263   */\n      0x00\n        /* \"#utility.yul\":2307:2310   */\n      dup3\n        /* \"#utility.yul\":2300:2304   */\n      0x1f\n        /* \"#utility.yul\":2292:2298   */\n      dup4\n        /* \"#utility.yul\":2288:2305   */\n      add\n        /* \"#utility.yul\":2284:2311   */\n      slt\n        /* \"#utility.yul\":2274:2396   */\n      tag_102\n      jumpi\n        /* \"#utility.yul\":2315:2394   */\n      tag_103\n      tag_38\n      jump\t// in\n    tag_103:\n        /* \"#utility.yul\":2274:2396   */\n    tag_102:\n        /* \"#utility.yul\":2432:2438   */\n      dup2\n        /* \"#utility.yul\":2419:2439   */\n      calldataload\n        /* \"#utility.yul\":2457:2536   */\n      tag_104\n        /* \"#utility.yul\":2532:2535   */\n      dup5\n        /* \"#utility.yul\":2524:2530   */\n      dup3\n        /* \"#utility.yul\":2517:2521   */\n      0x20\n        /* \"#utility.yul\":2509:2515   */\n      dup7\n        /* \"#utility.yul\":2505:2522   */\n      add\n        /* \"#utility.yul\":2457:2536   */\n      tag_46\n      jump\t// in\n    tag_104:\n        /* \"#utility.yul\":2448:2536   */\n      swap2\n      pop\n        /* \"#utility.yul\":2264:2542   */\n      pop\n        /* \"#utility.yul\":2202:2542   */\n      swap3\n      swap2\n      pop\n      pop\n      jump\t// out\n        /* \"#utility.yul\":2548:3057   */\n    tag_9:\n        /* \"#utility.yul\":2617:2623   */\n      0x00\n        /* \"#utility.yul\":2666:2668   */\n      0x20\n        /* \"#utility.yul\":2654:2663   */\n      dup3\n        /* \"#utility.yul\":2645:2652   */\n      dup5\n        /* \"#utility.yul\":2641:2664   */\n      sub\n        /* \"#utility.yul\":2637:2669   */\n      slt\n        /* \"#utility.yul\":2634:2753   */\n      iszero\n      tag_106\n      jumpi\n        /* \"#utility.yul\":2672:2751   */\n      tag_107\n      tag_36\n      jump\t// in\n    tag_107:\n        /* \"#utility.yul\":2634:2753   */\n    tag_106:\n        /* \"#utility.yul\":2820:2821   */\n      0x00\n        /* \"#utility.yul\":2809:2818   */\n      dup3\n        /* \"#utility.yul\":2805:2822   */\n      add\n        /* \"#utility.yul\":2792:2823   */\n      calldataload\n        /* \"#utility.yul\":2850:2868   */\n      0xffffffffffffffff\n        /* \"#utility.yul\":2842:2848   */\n      dup2\n        /* \"#utility.yul\":2839:2869   */\n      gt\n        /* \"#utility.yul\":2836:2953   */\n      iszero\n      tag_108\n      jumpi\n        /* \"#utility.yul\":2872:2951   */\n      tag_109\n      tag_37\n      jump\t// in\n    tag_109:\n        /* \"#utility.yul\":2836:2953   */\n    tag_108:\n        /* \"#utility.yul\":2977:3040   */\n      tag_110\n        /* \"#utility.yul\":3032:3039   */\n      dup5\n        /* \"#utility.yul\":3023:3029   */\n      dup3\n        /* \"#utility.yul\":3012:3021   */\n      dup6\n        /* \"#utility.yul\":3008:3030   */\n      add\n        /* \"#utility.yul\":2977:3040   */\n      tag_47\n      jump\t// in\n    tag_110:\n        /* \"#utility.yul\":2967:3040   */\n      swap2\n      pop\n        /* \"#utility.yul\":2763:3050   */\n      pop\n        /* \"#utility.yul\":2548:3057   */\n      swap3\n      swap2\n      pop\n      pop\n      jump\t// out\n        /* \"#utility.yul\":3063:3189   */\n    tag_48:\n        /* \"#utility.yul\":3100:3107   */\n      0x00\n        /* \"#utility.yul\":3140:3182   */\n      0xffffffffffffffffffffffffffffffffffffffff\n        /* \"#utility.yul\":3133:3138   */\n      dup3\n        /* \"#utility.yul\":3129:3183   */\n      and\n        /* \"#utility.yul\":3118:3183   */\n      swap1\n      pop\n        /* \"#utility.yul\":3063:3189   */\n      swap2\n      swap1\n      pop\n      jump\t// out\n        /* \"#utility.yul\":3195:3291   */\n    tag_49:\n        /* \"#utility.yul\":3232:3239   */\n      0x00\n        /* \"#utility.yul\":3261:3285   */\n      tag_113\n        /* \"#utility.yul\":3279:3284   */\n      dup3\n        /* \"#utility.yul\":3261:3285   */\n      tag_48\n      jump\t// in\n    tag_113:\n        /* \"#utility.yul\":3250:3285   */\n      swap1\n      pop\n        /* \"#utility.yul\":3195:3291   */\n      swap2\n      swap1\n      pop\n      jump\t// out\n        /* \"#utility.yul\":3297:3415   */\n    tag_50:\n        /* \"#utility.yul\":3384:3408   */\n      tag_115\n        /* \"#utility.yul\":3402:3407   */\n      dup2\n        /* \"#utility.yul\":3384:3408   */\n      tag_49\n      jump\t// in\n    tag_115:\n        /* \"#utility.yul\":3379:3382   */\n      dup3\n        /* \"#utility.yul\":3372:3409   */\n      mstore\n        /* \"#utility.yul\":3297:3415   */\n      pop\n      pop\n      jump\t// out\n        /* \"#utility.yul\":3421:3643   */\n    tag_14:\n        /* \"#utility.yul\":3514:3518   */\n      0x00\n        /* \"#utility.yul\":3552:3554   */\n      0x20\n        /* \"#utility.yul\":3541:3550   */\n      dup3\n        /* \"#utility.yul\":3537:3555   */\n      add\n        /* \"#utility.yul\":3529:3555   */\n      swap1\n      pop\n        /* \"#utility.yul\":3565:3636   */\n      tag_117\n        /* \"#utility.yul\":3633:3634   */\n      0x00\n        /* \"#utility.yul\":3622:3631   */\n      dup4\n        /* \"#utility.yul\":3618:3635   */\n      add\n        /* \"#utility.yul\":3609:3615   */\n      dup5\n        /* \"#utility.yul\":3565:3636   */\n      tag_50\n      jump\t// in\n    tag_117:\n        /* \"#utility.yul\":3421:3643   */\n      swap3\n      swap2\n      pop\n      pop\n      jump\t// out\n        /* \"#utility.yul\":3649:3748   */\n    tag_51:\n        /* \"#utility.yul\":3701:3707   */\n      0x00\n        /* \"#utility.yul\":3735:3740   */\n      dup2\n        /* \"#utility.yul\":3729:3741   */\n      mload\n        /* \"#utility.yul\":3719:3741   */\n      swap1\n      pop\n        /* \"#utility.yul\":3649:3748   */\n      swap2\n      swap1\n      pop\n      jump\t// out\n        /* \"#utility.yul\":3754:3923   */\n    tag_52:\n        /* \"#utility.yul\":3838:3849   */\n      0x00\n        /* \"#utility.yul\":3872:3878   */\n      dup3\n        /* \"#utility.yul\":3867:3870   */\n      dup3\n        /* \"#utility.yul\":3860:3879   */\n      mstore\n        /* \"#utility.yul\":3912:3916   */\n      0x20\n        /* \"#utility.yul\":3907:3910   */\n      dup3\n        /* \"#utility.yul\":3903:3917   */\n      add\n        /* \"#utility.yul\":3888:3917   */\n      swap1\n      pop\n        /* \"#utility.yul\":3754:3923   */\n      swap3\n      swap2\n      pop\n      pop\n      jump\t// out\n        /* \"#utility.yul\":3929:4236   */\n    tag_53:\n        /* \"#utility.yul\":3997:3998   */\n      0x00\n        /* \"#utility.yul\":4007:4120   */\n    tag_121:\n        /* \"#utility.yul\":4021:4027   */\n      dup4\n        /* \"#utility.yul\":4018:4019   */\n      dup2\n        /* \"#utility.yul\":4015:4028   */\n      lt\n        /* \"#utility.yul\":4007:4120   */\n      iszero\n      tag_123\n      jumpi\n        /* \"#utility.yul\":4106:4107   */\n      dup1\n        /* \"#utility.yul\":4101:4104   */\n      dup3\n        /* \"#utility.yul\":4097:4108   */\n      add\n        /* \"#utility.yul\":4091:4109   */\n      mload\n        /* \"#utility.yul\":4087:4088   */\n      dup2\n        /* \"#utility.yul\":4082:4085   */\n      dup5\n        /* \"#utility.yul\":4078:4089   */\n      add\n        /* \"#utility.yul\":4071:4110   */\n      mstore\n        /* \"#utility.yul\":4043:4045   */\n      0x20\n        /* \"#utility.yul\":4040:4041   */\n      dup2\n        /* \"#utility.yul\":4036:4046   */\n      add\n        /* \"#utility.yul\":4031:4046   */\n      swap1\n      pop\n        /* \"#utility.yul\":4007:4120   */\n      jump(tag_121)\n    tag_123:\n        /* \"#utility.yul\":4138:4144   */\n      dup4\n        /* \"#utility.yul\":4135:4136   */\n      dup2\n        /* \"#utility.yul\":4132:4145   */\n      gt\n        /* \"#utility.yul\":4129:4230   */\n      iszero\n      tag_124\n      jumpi\n        /* \"#utility.yul\":4218:4219   */\n      0x00\n        /* \"#utility.yul\":4209:4215   */\n      dup5\n        /* \"#utility.yul\":4204:4207   */\n      dup5\n        /* \"#utility.yul\":4200:4216   */\n      add\n        /* \"#utility.yul\":4193:4220   */\n      mstore\n        /* \"#utility.yul\":4129:4230   */\n    tag_124:\n        /* \"#utility.yul\":3978:4236   */\n      pop\n        /* \"#utility.yul\":3929:4236   */\n      pop\n      pop\n      pop\n      jump\t// out\n        /* \"#utility.yul\":4242:4606   */\n    tag_54:\n        /* \"#utility.yul\":4330:4333   */\n      0x00\n        /* \"#utility.yul\":4358:4397   */\n      tag_126\n        /* \"#utility.yul\":4391:4396   */\n      dup3\n        /* \"#utility.yul\":4358:4397   */\n      tag_51\n      jump\t// in\n    tag_126:\n        /* \"#utility.yul\":4413:4484   */\n      tag_127\n        /* \"#utility.yul\":4477:4483   */\n      dup2\n        /* \"#utility.yul\":4472:4475   */\n      dup6\n        /* \"#utility.yul\":4413:4484   */\n      tag_52\n      jump\t// in\n    tag_127:\n        /* \"#utility.yul\":4406:4484   */\n      swap4\n      pop\n        /* \"#utility.yul\":4493:4545   */\n      tag_128\n        /* \"#utility.yul\":4538:4544   */\n      dup2\n        /* \"#utility.yul\":4533:4536   */\n      dup6\n        /* \"#utility.yul\":4526:4530   */\n      0x20\n        /* \"#utility.yul\":4519:4524   */\n      dup7\n        /* \"#utility.yul\":4515:4531   */\n      add\n        /* \"#utility.yul\":4493:4545   */\n      tag_53\n      jump\t// in\n    tag_128:\n        /* \"#utility.yul\":4570:4599   */\n      tag_129\n        /* \"#utility.yul\":4592:4598   */\n      dup2\n        /* \"#utility.yul\":4570:4599   */\n      tag_40\n      jump\t// in\n    tag_129:\n        /* \"#utility.yul\":4565:4568   */\n      dup5\n        /* \"#utility.yul\":4561:4600   */\n      add\n        /* \"#utility.yul\":4554:4600   */\n      swap2\n      pop\n        /* \"#utility.yul\":4334:4606   */\n      pop\n        /* \"#utility.yul\":4242:4606   */\n      swap3\n      swap2\n      pop\n      pop\n      jump\t// out\n        /* \"#utility.yul\":4612:4925   */\n    tag_18:\n        /* \"#utility.yul\":4725:4729   */\n      0x00\n        /* \"#utility.yul\":4763:4765   */\n      0x20\n        /* \"#utility.yul\":4752:4761   */\n      dup3\n        /* \"#utility.yul\":4748:4766   */\n      add\n        /* \"#utility.yul\":4740:4766   */\n      swap1\n      pop\n        /* \"#utility.yul\":4812:4821   */\n      dup2\n        /* \"#utility.yul\":4806:4810   */\n      dup2\n        /* \"#utility.yul\":4802:4822   */\n      sub\n        /* \"#utility.yul\":4798:4799   */\n      0x00\n        /* \"#utility.yul\":4787:4796   */\n      dup4\n        /* \"#utility.yul\":4783:4800   */\n      add\n        /* \"#utility.yul\":4776:4823   */\n      mstore\n        /* \"#utility.yul\":4840:4918   */\n      tag_131\n        /* \"#utility.yul\":4913:4917   */\n      dup2\n        /* \"#utility.yul\":4904:4910   */\n      dup5\n        /* \"#utility.yul\":4840:4918   */\n      tag_54\n      jump\t// in\n    tag_131:\n        /* \"#utility.yul\":4832:4918   */\n      swap1\n      pop\n        /* \"#utility.yul\":4612:4925   */\n      swap3\n      swap2\n      pop\n      pop\n      jump\t// out\n        /* \"#utility.yul\":4931:5017   */\n    tag_55:\n        /* \"#utility.yul\":4966:4973   */\n      0x00\n        /* \"#utility.yul\":5006:5010   */\n      0xff\n        /* \"#utility.yul\":4999:5004   */\n      dup3\n        /* \"#utility.yul\":4995:5011   */\n      and\n        /* \"#utility.yul\":4984:5011   */\n      swap1\n      pop\n        /* \"#utility.yul\":4931:5017   */\n      swap2\n      swap1\n      pop\n      jump\t// out\n        /* \"#utility.yul\":5023:5135   */\n    tag_56:\n        /* \"#utility.yul\":5106:5128   */\n      tag_134\n        /* \"#utility.yul\":5122:5127   */\n      dup2\n        /* \"#utility.yul\":5106:5128   */\n      tag_55\n      jump\t// in\n    tag_134:\n        /* \"#utility.yul\":5101:5104   */\n      dup3\n        /* \"#utility.yul\":5094:5129   */\n      mstore\n        /* \"#utility.yul\":5023:5135   */\n      pop\n      pop\n      jump\t// out\n        /* \"#utility.yul\":5141:5355   */\n    tag_22:\n        /* \"#utility.yul\":5230:5234   */\n      0x00\n        /* \"#utility.yul\":5268:5270   */\n      0x20\n        /* \"#utility.yul\":5257:5266   */\n      dup3\n        /* \"#utility.yul\":5253:5271   */\n      add\n        /* \"#utility.yul\":5245:5271   */\n      swap1\n      pop\n        /* \"#utility.yul\":5281:5348   */\n      tag_136\n        /* \"#utility.yul\":5345:5346   */\n      0x00\n        /* \"#utility.yul\":5334:5343   */\n      dup4\n        /* \"#utility.yul\":5330:5347   */\n      add\n        /* \"#utility.yul\":5321:5327   */\n      dup5\n        /* \"#utility.yul\":5281:5348   */\n      tag_56\n      jump\t// in\n    tag_136:\n        /* \"#utility.yul\":5141:5355   */\n      swap3\n      swap2\n      pop\n      pop\n      jump\t// out\n        /* \"#utility.yul\":5361:5541   */\n    tag_57:\n        /* \"#utility.yul\":5409:5486   */\n      0x4e487b7100000000000000000000000000000000000000000000000000000000\n        /* \"#utility.yul\":5406:5407   */\n      0x00\n        /* \"#utility.yul\":5399:5487   */\n      mstore\n        /* \"#utility.yul\":5506:5510   */\n      0x22\n        /* \"#utility.yul\":5503:5504   */\n      0x04\n        /* \"#utility.yul\":5496:5511   */\n      mstore\n        /* \"#utility.yul\":5530:5534   */\n      0x24\n        /* \"#utility.yul\":5527:5528   */\n      0x00\n        /* \"#utility.yul\":5520:5535   */\n      revert\n        /* \"#utility.yul\":5547:5867   */\n    tag_30:\n        /* \"#utility.yul\":5591:5597   */\n      0x00\n        /* \"#utility.yul\":5628:5629   */\n      0x02\n        /* \"#utility.yul\":5622:5626   */\n      dup3\n        /* \"#utility.yul\":5618:5630   */\n      div\n        /* \"#utility.yul\":5608:5630   */\n      swap1\n      pop\n        /* \"#utility.yul\":5675:5676   */\n      0x01\n        /* \"#utility.yul\":5669:5673   */\n      dup3\n        /* \"#utility.yul\":5665:5677   */\n      and\n        /* \"#utility.yul\":5696:5714   */\n      dup1\n        /* \"#utility.yul\":5686:5767   */\n      tag_139\n      jumpi\n        /* \"#utility.yul\":5752:5756   */\n      0x7f\n        /* \"#utility.yul\":5744:5750   */\n      dup3\n        /* \"#utility.yul\":5740:5757   */\n      and\n        /* \"#utility.yul\":5730:5757   */\n      swap2\n      pop\n        /* \"#utility.yul\":5686:5767   */\n    tag_139:\n        /* \"#utility.yul\":5814:5816   */\n      0x20\n        /* \"#utility.yul\":5806:5812   */\n      dup3\n        /* \"#utility.yul\":5803:5817   */\n      lt\n        /* \"#utility.yul\":5783:5801   */\n      dup2\n        /* \"#utility.yul\":5780:5818   */\n      sub\n        /* \"#utility.yul\":5777:5861   */\n      tag_140\n      jumpi\n        /* \"#utility.yul\":5833:5851   */\n      tag_141\n      tag_57\n      jump\t// in\n    tag_141:\n        /* \"#utility.yul\":5777:5861   */\n    tag_140:\n        /* \"#utility.yul\":5598:5867   */\n      pop\n        /* \"#utility.yul\":5547:5867   */\n      swap2\n      swap1\n      pop\n      jump\t// out\n        /* \"#utility.yul\":5873:6014   */\n    tag_58:\n        /* \"#utility.yul\":5922:5926   */\n      0x00\n        /* \"#utility.yul\":5945:5948   */\n      dup2\n        /* \"#utility.yul\":5937:5948   */\n      swap1\n      pop\n        /* \"#utility.yul\":5968:5971   */\n      dup2\n        /* \"#utility.yul\":5965:5966   */\n      0x00\n        /* \"#utility.yul\":5958:5972   */\n      mstore\n        /* \"#utility.yul\":6002:6006   */\n      0x20\n        /* \"#utility.yul\":5999:6000   */\n      0x00\n        /* \"#utility.yul\":5989:6007   */\n      keccak256\n        /* \"#utility.yul\":5981:6007   */\n      swap1\n      pop\n        /* \"#utility.yul\":5873:6014   */\n      swap2\n      swap1\n      pop\n      jump\t// out\n        /* \"#utility.yul\":6020:6113   */\n    tag_59:\n        /* \"#utility.yul\":6057:6063   */\n      0x00\n        /* \"#utility.yul\":6104:6106   */\n      0x20\n        /* \"#utility.yul\":6099:6101   */\n      0x1f\n        /* \"#utility.yul\":6092:6097   */\n      dup4\n        /* \"#utility.yul\":6088:6102   */\n      add\n        /* \"#utility.yul\":6084:6107   */\n      div\n        /* \"#utility.yul\":6074:6107   */\n      swap1\n      pop\n        /* \"#utility.yul\":6020:6113   */\n      swap2\n      swap1\n      pop\n      jump\t// out\n        /* \"#utility.yul\":6119:6226   */\n    tag_60:\n        /* \"#utility.yul\":6163:6171   */\n      0x00\n        /* \"#utility.yul\":6213:6218   */\n      dup3\n        /* \"#utility.yul\":6207:6211   */\n      dup3\n        /* \"#utility.yul\":6203:6219   */\n      shl\n        /* \"#utility.yul\":6182:6219   */\n      swap1\n      pop\n        /* \"#utility.yul\":6119:6226   */\n      swap3\n      swap2\n      pop\n      pop\n      jump\t// out\n        /* \"#utility.yul\":6232:6625   */\n    tag_61:\n        /* \"#utility.yul\":6301:6307   */\n      0x00\n        /* \"#utility.yul\":6351:6352   */\n      0x08\n        /* \"#utility.yul\":6339:6349   */\n      dup4\n        /* \"#utility.yul\":6335:6353   */\n      mul\n        /* \"#utility.yul\":6374:6471   */\n      tag_146\n        /* \"#utility.yul\":6404:6470   */\n      0xffffffffffffffffffffffffffffffffffffffffffffffffffffffffffffffff\n        /* \"#utility.yul\":6393:6402   */\n      dup3\n        /* \"#utility.yul\":6374:6471   */\n      tag_60\n      jump\t// in\n    tag_146:\n        /* \"#utility.yul\":6492:6531   */\n      tag_147\n        /* \"#utility.yul\":6522:6530   */\n      dup7\n        /* \"#utility.yul\":6511:6520   */\n      dup4\n        /* \"#utility.yul\":6492:6531   */\n      tag_60\n      jump\t// in\n    tag_147:\n        /* \"#utility.yul\":6480:6531   */\n      swap6\n      pop\n        /* \"#utility.yul\":6564:6568   */\n      dup1\n        /* \"#utility.yul\":6560:6569   */\n      not\n        /* \"#utility.yul\":6553:6558   */\n      dup5\n        /* \"#utility.yul\":6549:6570   */\n      and\n        /* \"#utility.yul\":6540:6570   */\n      swap4\n      pop\n        /* \"#utility.yul\":6613:6617   */\n      dup1\n        /* \"#utility.yul\":6603:6611   */\n      dup7\n        /* \"#utility.yul\":6599:6618   */\n      and\n        /* \"#utility.yul\":6592:6597   */\n      dup5\n        /* \"#utility.yul\":6589:6619   */\n      or\n        /* \"#utility.yul\":6579:6619   */\n      swap3\n      pop\n        /* \"#utility.yul\":6308:6625   */\n      pop\n      pop\n        /* \"#utility.yul\":6232:6625   */\n      swap4\n      swap3\n      pop\n      pop\n      pop\n      jump\t// out\n        /* \"#utility.yul\":6631:6708   */\n    tag_62:\n        /* \"#utility.yul\":6668:6675   */\n      0x00\n        /* \"#utility.yul\":6697:6702   */\n      dup2\n        /* \"#utility.yul\":6686:6702   */\n      swap1\n      pop\n        /* \"#utility.yul\":6631:6708   */\n      swap2\n      swap1\n      pop\n      jump\t// out\n        /* \"#utility.yul\":6714:6774   */\n    tag_63:\n        /* \"#utility.yul\":6742:6745   */\n      0x00\n        /* \"#utility.yul\":6763:6768   */\n      dup2\n        /* \"#utility.yul\":6756:6768   */\n      swap1\n      pop\n        /* \"#utility.yul\":6714:6774   */\n      swap2\n      swap1\n      pop\n      jump\t// out\n        /* \"#utility.yul\":6780:6922   */\n    tag_64:\n        /* \"#utility.yul\":6830:6839   */\n      0x00\n        /* \"#utility.yul\":6863:6916   */\n      tag_151\n        /* \"#utility.yul\":6881:6915   */\n      tag_152\n        /* \"#utility.yul\":6890:6914   */\n      tag_153\n        /* \"#utility.yul\":6908:6913   */\n      dup5\n        /* \"#utility.yul\":6890:6914   */\n      tag_62\n      jump\t// in\n    tag_153:\n        /* \"#utility.yul\":6881:6915   */\n      tag_63\n      jump\t// in\n    tag_152:\n        /* \"#utility.yul\":6863:6916   */\n      tag_62\n      jump\t// in\n    tag_151:\n        /* \"#utility.yul\":6850:6916   */\n      swap1\n      pop\n        /* \"#utility.yul\":6780:6922   */\n      swap2\n      swap1\n      pop\n      jump\t// out\n        /* \"#utility.yul\":6928:7003   */\n    tag_65:\n        /* \"#utility.yul\":6971:6974   */\n      0x00\n        /* \"#utility.yul\":6992:6997   */\n      dup2\n        /* \"#utility.yul\":6985:6997   */\n      swap1\n      pop\n        /* \"#utility.yul\":6928:7003   */\n      swap2\n      swap1\n      pop\n      jump\t// out\n        /* \"#utility.yul\":7009:7278   */\n    tag_66:\n        /* \"#utility.yul\":7119:7158   */\n      tag_156\n        /* \"#utility.yul\":7150:7157   */\n      dup4\n        /* \"#utility.yul\":7119:7158   */\n      tag_64\n      jump\t// in\n    tag_156:\n        /* \"#utility.yul\":7180:7271   */\n      tag_157\n        /* \"#utility.yul\":7229:7270   */\n      tag_158\n        /* \"#utility.yul\":7253:7269   */\n      dup3\n        /* \"#utility.yul\":7229:7270   */\n      tag_65\n      jump\t// in\n    tag_158:\n        /* \"#utility.yul\":7221:7227   */\n      dup5\n        /* \"#utility.yul\":7214:7218   */\n      dup5\n        /* \"#utility.yul\":7208:7219   */\n      sload\n        /* \"#utility.yul\":7180:7271   */\n      tag_61\n      jump\t// in\n    tag_157:\n        /* \"#utility.yul\":7174:7178   */\n      dup3\n        /* \"#utility.yul\":7167:7272   */\n      sstore\n        /* \"#utility.yul\":7085:7278   */\n      pop\n        /* \"#utility.yul\":7009:7278   */\n      pop\n      pop\n      pop\n      jump\t// out\n        /* \"#utility.yul\":7284:7357   */\n    tag_67:\n        /* \"#utility.yul\":7329:7332   */\n      0x00\n        /* \"#utility.yul\":7284:7357   */\n      swap1\n      jump\t// out\n        /* \"#utility.yul\":7363:7552   */\n    tag_68:\n        /* \"#utility.yul\":7440:7472   */\n      tag_161\n      tag_67\n      jump\t// in\n    tag_161:\n        /* \"#utility.yul\":7481:7546   */\n      tag_162\n        /* \"#utility.yul\":7539:7545   */\n      dup2\n        /* \"#utility.yul\":7531:7537   */\n      dup5\n        /* \"#utility.yul\":7525:7529   */\n      dup5\n        /* \"#utility.yul\":7481:7546   */\n      tag_66\n      jump\t// in\n    tag_162:\n        /* \"#utility.yul\":7416:7552   */\n      pop\n        /* \"#utility.yul\":7363:7552   */\n      pop\n      pop\n      jump\t// out\n        /* \"#utility.yul\":7558:7744   */\n    tag_69:\n        /* \"#utility.yul\":7618:7738   */\n    tag_164:\n        /* \"#utility.yul\":7635:7638   */\n      dup2\n        /* \"#utility.yul\":7628:7633   */\n      dup2\n        /* \"#utility.yul\":7625:7639   */\n      lt\n        /* \"#utility.yul\":7618:7738   */\n      iszero\n      tag_166\n      jumpi\n        /* \"#utility.yul\":7689:7728   */\n      tag_167\n        /* \"#utility.yul\":7726:7727   */\n      0x00\n        /* \"#utility.yul\":7719:7724   */\n      dup3\n        /* \"#utility.yul\":7689:7728   */\n      tag_68\n      jump\t// in\n    tag_167:\n        /* \"#utility.yul\":7662:7663   */\n      0x01\n        /* \"#utility.yul\":7655:7660   */\n      dup2\n        /* \"#utility.yul\":7651:7664   */\n      add\n        /* \"#utility.yul\":7642:7664   */\n      swap1\n      pop\n        /* \"#utility.yul\":7618:7738   */\n      jump(tag_164)\n    tag_166:\n        /* \"#utility.yul\":7558:7744   */\n      pop\n      pop\n      jump\t// out\n        /* \"#utility.yul\":7750:8293   */\n    tag_70:\n        /* \"#utility.yul\":7851:7853   */\n      0x1f\n        /* \"#utility.yul\":7846:7849   */\n      dup3\n        /* \"#utility.yul\":7843:7854   */\n      gt\n        /* \"#utility.yul\":7840:8286   */\n      iszero\n      tag_169\n      jumpi\n        /* \"#utility.yul\":7885:7923   */\n      tag_170\n        /* \"#utility.yul\":7917:7922   */\n      dup2\n        /* \"#utility.yul\":7885:7923   */\n      tag_58\n      jump\t// in\n    tag_170:\n        /* \"#utility.yul\":7969:7998   */\n      tag_171\n        /* \"#utility.yul\":7987:7997   */\n      dup5\n        /* \"#utility.yul\":7969:7998   */\n      tag_59\n      jump\t// in\n    tag_171:\n        /* \"#utility.yul\":7959:7967   */\n      dup2\n        /* \"#utility.yul\":7955:7999   */\n      add\n        /* \"#utility.yul\":8152:8154   */\n      0x20\n        /* \"#utility.yul\":8140:8150   */\n      dup6\n        /* \"#utility.yul\":8137:8155   */\n      lt\n        /* \"#utility.yul\":8134:8183   */\n      iszero\n      tag_172\n      jumpi\n        /* \"#utility.yul\":8173:8181   */\n      dup2\n        /* \"#utility.yul\":8158:8181   */\n      swap1\n      pop\n        /* \"#utility.yul\":8134:8183   */\n    tag_172:\n        /* \"#utility.yul\":8196:8276   */\n      tag_173\n        /* \"#utility.yul\":8252:8274   */\n      tag_174\n        /* \"#utility.yul\":8270:8273   */\n      dup6\n        /* \"#utility.yul\":8252:8274   */\n      tag_59\n      jump\t// in\n    tag_174:\n        /* \"#utility.yul\":8242:8250   */\n      dup4\n        /* \"#utility.yul\":8238:8275   */\n      add\n        /* \"#utility.yul\":8225:8236   */\n      dup3\n        /* \"#utility.yul\":8196:8276   */\n      tag_69\n      jump\t// in\n    tag_173:\n        /* \"#utility.yul\":7855:8286   */\n      pop\n      pop\n        /* \"#utility.yul\":7840:8286   */\n    tag_169:\n        /* \"#utility.yul\":7750:8293   */\n      pop\n      pop\n      pop\n      jump\t// out\n        /* \"#utility.yul\":8299:8416   */\n    tag_71:\n        /* \"#utility.yul\":8353:8361   */\n      0x00\n        /* \"#utility.yul\":8403:8408   */\n      dup3\n        /* \"#utility.yul\":8397:8401   */\n      dup3\n        /* \"#utility.yul\":8393:8409   */\n      shr\n        /* \"#utility.yul\":8372:8409   */\n      swap1\n      pop\n        /* \"#utility.yul\":8299:8416   */\n      swap3\n      swap2\n      pop\n      pop\n      jump\t// out\n        /* \"#utility.yul\":8422:8591   */\n    tag_72:\n        /* \"#utility.yul\":8466:8472   */\n      0x00\n        /* \"#utility.yul\":8499:8550   */\n      tag_177\n        /* \"#utility.yul\":8547:8548   */\n      0x00\n        /* \"#utility.yul\":8543:8549   */\n      not\n        /* \"#utility.yul\":8535:8540   */\n      dup5\n        /* \"#utility.yul\":8532:8533   */\n      0x08\n        /* \"#utility.yul\":8528:8541   */\n      mul\n        /* \"#utility.yul\":8499:8550   */\n      tag_71\n      jump\t// in\n    tag_177:\n        /* \"#utility.yul\":8495:8551   */\n      not\n        /* \"#utility.yul\":8580:8584   */\n      dup1\n        /* \"#utility.yul\":8574:8578   */\n      dup4\n        /* \"#utility.yul\":8570:8585   */\n      and\n        /* \"#utility.yul\":8560:8585   */\n      swap2\n      pop\n        /* \"#utility.yul\":8473:8591   */\n      pop\n        /* \"#utility.yul\":8422:8591   */\n      swap3\n      swap2\n      pop\n      pop\n      jump\t// out\n        /* \"#utility.yul\":8596:8891   */\n    tag_73:\n        /* \"#utility.yul\":8672:8676   */\n      0x00\n        /* \"#utility.yul\":8818:8847   */\n      tag_179\n        /* \"#utility.yul\":8843:8846   */\n      dup4\n        /* \"#utility.yul\":8837:8841   */\n      dup4\n        /* \"#utility.yul\":8818:8847   */\n      tag_72\n      jump\t// in\n    tag_179:\n        /* \"#utility.yul\":8810:8847   */\n      swap2\n      pop\n        /* \"#utility.yul\":8880:8883   */\n      dup3\n        /* \"#utility.yul\":8877:8878   */\n      0x02\n        /* \"#utility.yul\":8873:8884   */\n      mul\n        /* \"#utility.yul\":8867:8871   */\n      dup3\n        /* \"#utility.yul\":8864:8885   */\n      or\n        /* \"#utility.yul\":8856:8885   */\n      swap1\n      pop\n        /* \"#utility.yul\":8596:8891   */\n      swap3\n      swap2\n      pop\n      pop\n      jump\t// out\n        /* \"#utility.yul\":8896:10291   */\n    tag_26:\n        /* \"#utility.yul\":9013:9050   */\n      tag_181\n        /* \"#utility.yul\":9046:9049   */\n      dup3\n        /* \"#utility.yul\":9013:9050   */\n      tag_51\n      jump\t// in\n    tag_181:\n        /* \"#utility.yul\":9115:9133   */\n      0xffffffffffffffff\n        /* \"#utility.yul\":9107:9113   */\n      dup2\n        /* \"#utility.yul\":9104:9134   */\n      gt\n        /* \"#utility.yul\":9101:9157   */\n      iszero\n      tag_182\n      jumpi\n        /* \"#utility.yul\":9137:9155   */\n      tag_183\n      tag_41\n      jump\t// in\n    tag_183:\n        /* \"#utility.yul\":9101:9157   */\n    tag_182:\n        /* \"#utility.yul\":9181:9219   */\n      tag_184\n        /* \"#utility.yul\":9213:9217   */\n      dup3\n        /* \"#utility.yul\":9207:9218   */\n      sload\n        /* \"#utility.yul\":9181:9219   */\n      tag_30\n      jump\t// in\n    tag_184:\n        /* \"#utility.yul\":9266:9333   */\n      tag_185\n        /* \"#utility.yul\":9326:9332   */\n      dup3\n        /* \"#utility.yul\":9318:9324   */\n      dup3\n        /* \"#utility.yul\":9312:9316   */\n      dup6\n        /* \"#utility.yul\":9266:9333   */\n      tag_70\n      jump\t// in\n    tag_185:\n        /* \"#utility.yul\":9360:9361   */\n      0x00\n        /* \"#utility.yul\":9384:9388   */\n      0x20\n        /* \"#utility.yul\":9371:9388   */\n      swap1\n      pop\n        /* \"#utility.yul\":9416:9418   */\n      0x1f\n        /* \"#utility.yul\":9408:9414   */\n      dup4\n        /* \"#utility.yul\":9405:9419   */\n      gt\n        /* \"#utility.yul\":9433:9434   */\n      0x01\n        /* \"#utility.yul\":9428:10046   */\n      dup2\n      eq\n      tag_187\n      jumpi\n        /* \"#utility.yul\":10090:10091   */\n      0x00\n        /* \"#utility.yul\":10107:10113   */\n      dup5\n        /* \"#utility.yul\":10104:10181   */\n      iszero\n      tag_188\n      jumpi\n        /* \"#utility.yul\":10156:10165   */\n      dup3\n        /* \"#utility.yul\":10151:10154   */\n      dup8\n        /* \"#utility.yul\":10147:10166   */\n      add\n        /* \"#utility.yul\":10141:10167   */\n      mload\n        /* \"#utility.yul\":10132:10167   */\n      swap1\n      pop\n        /* \"#utility.yul\":10104:10181   */\n    tag_188:\n        /* \"#utility.yul\":10207:10274   */\n      tag_189\n        /* \"#utility.yul\":10267:10273   */\n      dup6\n        /* \"#utility.yul\":10260:10265   */\n      dup3\n        /* \"#utility.yul\":10207:10274   */\n      tag_73\n      jump\t// in\n    tag_189:\n        /* \"#utility.yul\":10201:10205   */\n      dup7\n        /* \"#utility.yul\":10194:10275   */\n      sstore\n        /* \"#utility.yul\":10063:10285   */\n      pop\n        /* \"#utility.yul\":9398:10285   */\n      jump(tag_186)\n        /* \"#utility.yul\":9428:10046   */\n    tag_187:\n        /* \"#utility.yul\":9480:9484   */\n      0x1f\n        /* \"#utility.yul\":9476:9485   */\n      not\n        /* \"#utility.yul\":9468:9474   */\n      dup5\n        /* \"#utility.yul\":9464:9486   */\n      and\n        /* \"#utility.yul\":9514:9551   */\n      tag_190\n        /* \"#utility.yul\":9546:9550   */\n      dup7\n        /* \"#utility.yul\":9514:9551   */\n      tag_58\n      jump\t// in\n    tag_190:\n        /* \"#utility.yul\":9573:9574   */\n      0x00\n        /* \"#utility.yul\":9587:9795   */\n    tag_191:\n        /* \"#utility.yul\":9601:9608   */\n      dup3\n        /* \"#utility.yul\":9598:9599   */\n      dup2\n        /* \"#utility.yul\":9595:9609   */\n      lt\n        /* \"#utility.yul\":9587:9795   */\n      iszero\n      tag_193\n      jumpi\n        /* \"#utility.yul\":9680:9689   */\n      dup5\n        /* \"#utility.yul\":9675:9678   */\n      dup10\n        /* \"#utility.yul\":9671:9690   */\n      add\n        /* \"#utility.yul\":9665:9691   */\n      mload\n        /* \"#utility.yul\":9657:9663   */\n      dup3\n        /* \"#utility.yul\":9650:9692   */\n      sstore\n        /* \"#utility.yul\":9731:9732   */\n      0x01\n        /* \"#utility.yul\":9723:9729   */\n      dup3\n        /* \"#utility.yul\":9719:9733   */\n      add\n        /* \"#utility.yul\":9709:9733   */\n      swap2\n      pop\n        /* \"#utility.yul\":9778:9780   */\n      0x20\n        /* \"#utility.yul\":9767:9776   */\n      dup6\n        /* \"#utility.yul\":9763:9781   */\n      add\n        /* \"#utility.yul\":9750:9781   */\n      swap5\n      pop\n        /* \"#utility.yul\":9624:9628   */\n      0x20\n        /* \"#utility.yul\":9621:9622   */\n      dup2\n        /* \"#utility.yul\":9617:9629   */\n      add\n        /* \"#utility.yul\":9612:9629   */\n      swap1\n      pop\n        /* \"#utility.yul\":9587:9795   */\n      jump(tag_191)\n    tag_193:\n        /* \"#utility.yul\":9823:9829   */\n      dup7\n        /* \"#utility.yul\":9814:9821   */\n      dup4\n        /* \"#utility.yul\":9811:9830   */\n      lt\n        /* \"#utility.yul\":9808:9987   */\n      iszero\n      tag_194\n      jumpi\n        /* \"#utility.yul\":9881:9890   */\n      dup5\n        /* \"#utility.yul\":9876:9879   */\n      dup10\n        /* \"#utility.yul\":9872:9891   */\n      add\n        /* \"#utility.yul\":9866:9892   */\n      mload\n        /* \"#utility.yul\":9924:9972   */\n      tag_195\n        /* \"#utility.yul\":9966:9970   */\n      0x1f\n        /* \"#utility.yul\":9958:9964   */\n      dup10\n        /* \"#utility.yul\":9954:9971   */\n      and\n        /* \"#utility.yul\":9943:9952   */\n      dup3\n        /* \"#utility.yul\":9924:9972   */\n      tag_72\n      jump\t// in\n    tag_195:\n        /* \"#utility.yul\":9916:9922   */\n      dup4\n        /* \"#utility.yul\":9909:9973   */\n      sstore\n        /* \"#utility.yul\":9831:9987   */\n      pop\n        /* \"#utility.yul\":9808:9987   */\n    tag_194:\n        /* \"#utility.yul\":10033:10034   */\n      0x01\n        /* \"#utility.yul\":10029:10030   */\n      0x02\n        /* \"#utility.yul\":10021:10027   */\n      dup9\n        /* \"#utility.yul\":10017:10031   */\n      mul\n        /* \"#utility.yul\":10013:10035   */\n      add\n        /* \"#utility.yul\":10007:10011   */\n      dup9\n        /* \"#utility.yul\":10000:10036   */\n      sstore\n        /* \"#utility.yul\":9435:10046   */\n      pop\n      pop\n      pop\n        /* \"#utility.yul\":9398:10285   */\n    tag_186:\n      pop\n        /* \"#utility.yul\":8988:10291   */\n      pop\n      pop\n      pop\n        /* \"#utility.yul\":8896:10291   */\n      pop\n      pop\n      jump\t// out\n        /* \"#utility.yul\":10297:10477   */\n    tag_74:\n        /* \"#utility.yul\":10345:10422   */\n      0x4e487b7100000000000000000000000000000000000000000000000000000000\n        /* \"#utility.yul\":10342:10343   */\n      0x00\n        /* \"#utility.yul\":10335:10423   */\n      mstore\n        /* \"#utility.yul\":10442:10446   */\n      0x11\n        /* \"#utility.yul\":10439:10440   */\n      0x04\n        /* \"#utility.yul\":10432:10447   */\n      mstore\n        /* \"#utility.yul\":10466:10470   */\n      0x24\n        /* \"#utility.yul\":10463:10464   */\n      0x00\n        /* \"#utility.yul\":10456:10471   */\n      revert\n        /* \"#utility.yul\":10483:10650   */\n    tag_28:\n        /* \"#utility.yul\":10520:10523   */\n      0x00\n        /* \"#utility.yul\":10543:10565   */\n      tag_198\n        /* \"#utility.yul\":10559:10564   */\n      dup3\n        /* \"#utility.yul\":10543:10565   */\n      tag_55\n      jump\t// in\n    tag_198:\n        /* \"#utility.yul\":10534:10565   */\n      swap2\n      pop\n        /* \"#utility.yul\":10587:10591   */\n      0xff\n        /* \"#utility.yul\":10580:10585   */\n      dup3\n        /* \"#utility.yul\":10577:10592   */\n      sub\n        /* \"#utility.yul\":10574:10615   */\n      tag_199\n      jumpi\n        /* \"#utility.yul\":10595:10613   */\n      tag_200\n      tag_74\n      jump\t// in\n    tag_200:\n        /* \"#utility.yul\":10574:10615   */\n    tag_199:\n        /* \"#utility.yul\":10642:10643   */\n      0x01\n        /* \"#utility.yul\":10635:10640   */\n      dup3\n        /* \"#utility.yul\":10631:10644   */\n      add\n        /* \"#utility.yul\":10624:10644   */\n      swap1\n      pop\n        /* \"#utility.yul\":10483:10650   */\n      swap2\n      swap1\n      pop\n      jump\t// out\n\n    auxdata: 0xa2646970667358221220c89fe33e2b0660fe692c33b7520dceb1cd5bc504452be01ee6dca69427ddf29f64736f6c634300080f0033\n}\n",
				"bytecode": {
					"linkReferences": {},
					"object": "608060405234801561001057600080fd5b5033600060016101000a81548173ffffffffffffffffffffffffffffffffffffffff021916908373ffffffffffffffffffffffffffffffffffffffff160217905550610882806100616000396000f3fe608060405234801561001057600080fd5b506004361061004c5760003560e01c806360fd1c4f146100515780638da5cb5b1461006d578063e21f37ce1461008b578063f35f6447146100a9575b600080fd5b61006b60048036038101906100669190610386565b6100c7565b005b610075610167565b6040516100829190610410565b60405180910390f35b61009361018d565b6040516100a091906104b3565b60405180910390f35b6100b161021b565b6040516100be91906104f1565b60405180910390f35b3373ffffffffffffffffffffffffffffffffffffffff16600060019054906101000a900473ffffffffffffffffffffffffffffffffffffffff1673ffffffffffffffffffffffffffffffffffffffff160361016457806001908161012b9190610722565b5060008081819054906101000a900460ff168092919061014a90610823565b91906101000a81548160ff021916908360ff160217905550505b50565b600060019054906101000a900473ffffffffffffffffffffffffffffffffffffffff1681565b6001805461019a9061053b565b80601f01602080910402602001604051908101604052809291908181526020018280546101c69061053b565b80156102135780601f106101e857610100808354040283529160200191610213565b820191906000526020600020905b8154815290600101906020018083116101f657829003601f168201915b505050505081565b60008054906101000a900460ff1681565b6000604051905090565b600080fd5b600080fd5b600080fd5b600080fd5b6000601f19601f8301169050919050565b7f4e487b7100000000000000000000000000000000000000000000000000000000600052604160045260246000fd5b6102938261024a565b810181811067ffffffffffffffff821117156102b2576102b161025b565b5b80604052505050565b60006102c561022c565b90506102d1828261028a565b919050565b600067ffffffffffffffff8211156102f1576102f061025b565b5b6102fa8261024a565b9050602081019050919050565b82818337600083830152505050565b6000610329610324846102d6565b6102bb565b90508281526020810184848401111561034557610344610245565b5b610350848285610307565b509392505050565b600082601f83011261036d5761036c610240565b5b813561037d848260208601610316565b91505092915050565b60006020828403121561039c5761039b610236565b5b600082013567ffffffffffffffff8111156103ba576103b961023b565b5b6103c684828501610358565b91505092915050565b600073ffffffffffffffffffffffffffffffffffffffff82169050919050565b60006103fa826103cf565b9050919050565b61040a816103ef565b82525050565b60006020820190506104256000830184610401565b92915050565b600081519050919050565b600082825260208201905092915050565b60005b8381101561046557808201518184015260208101905061044a565b83811115610474576000848401525b50505050565b60006104858261042b565b61048f8185610436565b935061049f818560208601610447565b6104a88161024a565b840191505092915050565b600060208201905081810360008301526104cd818461047a565b905092915050565b600060ff82169050919050565b6104eb816104d5565b82525050565b600060208201905061050660008301846104e2565b92915050565b7f4e487b7100000000000000000000000000000000000000000000000000000000600052602260045260246000fd5b6000600282049050600182168061055357607f821691505b6020821081036105665761056561050c565b5b50919050565b60008190508160005260206000209050919050565b60006020601f8301049050919050565b600082821b905092915050565b6000600883026105ce7fffffffffffffffffffffffffffffffffffffffffffffffffffffffffffffffff82610591565b6105d88683610591565b95508019841693508086168417925050509392505050565b6000819050919050565b6000819050919050565b600061061f61061a610615846105f0565b6105fa565b6105f0565b9050919050565b6000819050919050565b61063983610604565b61064d61064582610626565b84845461059e565b825550505050565b600090565b610662610655565b61066d818484610630565b505050565b5b818110156106915761068660008261065a565b600181019050610673565b5050565b601f8211156106d6576106a78161056c565b6106b084610581565b810160208510156106bf578190505b6106d36106cb85610581565b830182610672565b50505b505050565b600082821c905092915050565b60006106f9600019846008026106db565b1980831691505092915050565b600061071283836106e8565b9150826002028217905092915050565b61072b8261042b565b67ffffffffffffffff8111156107445761074361025b565b5b61074e825461053b565b610759828285610695565b600060209050601f83116001811461078c576000841561077a578287015190505b6107848582610706565b8655506107ec565b601f19841661079a8661056c565b60005b828110156107c25784890151825560018201915060208501945060208101905061079d565b868310156107df57848901516107db601f8916826106e8565b8355505b6001600288020188555050505b505050505050565b7f4e487b7100000000000000000000000000000000000000000000000000000000600052601160045260246000fd5b600061082e826104d5565b915060ff8203610841576108406107f4565b5b60018201905091905056fea2646970667358221220c89fe33e2b0660fe692c33b7520dceb1cd5bc504452be01ee6dca69427ddf29f64736f6c634300080f0033",
					"opcodes": "PUSH1 0x80 PUSH1 0x40 MSTORE CALLVALUE DUP1 ISZERO PUSH2 0x10 JUMPI PUSH1 0x0 DUP1 REVERT JUMPDEST POP CALLER PUSH1 0x0 PUSH1 0x1 PUSH2 0x100 EXP DUP2 SLOAD DUP2 PUSH20 0xFFFFFFFFFFFFFFFFFFFFFFFFFFFFFFFFFFFFFFFF MUL NOT AND SWAP1 DUP4 PUSH20 0xFFFFFFFFFFFFFFFFFFFFFFFFFFFFFFFFFFFFFFFF AND MUL OR SWAP1 SSTORE POP PUSH2 0x882 DUP1 PUSH2 0x61 PUSH1 0x0 CODECOPY PUSH1 0x0 RETURN INVALID PUSH1 0x80 PUSH1 0x40 MSTORE CALLVALUE DUP1 ISZERO PUSH2 0x10 JUMPI PUSH1 0x0 DUP1 REVERT JUMPDEST POP PUSH1 0x4 CALLDATASIZE LT PUSH2 0x4C JUMPI PUSH1 0x0 CALLDATALOAD PUSH1 0xE0 SHR DUP1 PUSH4 0x60FD1C4F EQ PUSH2 0x51 JUMPI DUP1 PUSH4 0x8DA5CB5B EQ PUSH2 0x6D JUMPI DUP1 PUSH4 0xE21F37CE EQ PUSH2 0x8B JUMPI DUP1 PUSH4 0xF35F6447 EQ PUSH2 0xA9 JUMPI JUMPDEST PUSH1 0x0 DUP1 REVERT JUMPDEST PUSH2 0x6B PUSH1 0x4 DUP1 CALLDATASIZE SUB DUP2 ADD SWAP1 PUSH2 0x66 SWAP2 SWAP1 PUSH2 0x386 JUMP JUMPDEST PUSH2 0xC7 JUMP JUMPDEST STOP JUMPDEST PUSH2 0x75 PUSH2 0x167 JUMP JUMPDEST PUSH1 0x40 MLOAD PUSH2 0x82 SWAP2 SWAP1 PUSH2 0x410 JUMP JUMPDEST PUSH1 0x40 MLOAD DUP1 SWAP2 SUB SWAP1 RETURN JUMPDEST PUSH2 0x93 PUSH2 0x18D JUMP JUMPDEST PUSH1 0x40 MLOAD PUSH2 0xA0 SWAP2 SWAP1 PUSH2 0x4B3 JUMP JUMPDEST PUSH1 0x40 MLOAD DUP1 SWAP2 SUB SWAP1 RETURN JUMPDEST PUSH2 0xB1 PUSH2 0x21B JUMP JUMPDEST PUSH1 0x40 MLOAD PUSH2 0xBE SWAP2 SWAP1 PUSH2 0x4F1 JUMP JUMPDEST PUSH1 0x40 MLOAD DUP1 SWAP2 SUB SWAP1 RETURN JUMPDEST CALLER PUSH20 0xFFFFFFFFFFFFFFFFFFFFFFFFFFFFFFFFFFFFFFFF AND PUSH1 0x0 PUSH1 0x1 SWAP1 SLOAD SWAP1 PUSH2 0x100 EXP SWAP1 DIV PUSH20 0xFFFFFFFFFFFFFFFFFFFFFFFFFFFFFFFFFFFFFFFF AND PUSH20 0xFFFFFFFFFFFFFFFFFFFFFFFFFFFFFFFFFFFFFFFF AND SUB PUSH2 0x164 JUMPI DUP1 PUSH1 0x1 SWAP1 DUP2 PUSH2 0x12B SWAP2 SWAP1 PUSH2 0x722 JUMP JUMPDEST POP PUSH1 0x0 DUP1 DUP2 DUP2 SWAP1 SLOAD SWAP1 PUSH2 0x100 EXP SWAP1 DIV PUSH1 0xFF AND DUP1 SWAP3 SWAP2 SWAP1 PUSH2 0x14A SWAP1 PUSH2 0x823 JUMP JUMPDEST SWAP2 SWAP1 PUSH2 0x100 EXP DUP2 SLOAD DUP2 PUSH1 0xFF MUL NOT AND SWAP1 DUP4 PUSH1 0xFF AND MUL OR SWAP1 SSTORE POP POP JUMPDEST POP JUMP JUMPDEST PUSH1 0x0 PUSH1 0x1 SWAP1 SLOAD SWAP1 PUSH2 0x100 EXP SWAP1 DIV PUSH20 0xFFFFFFFFFFFFFFFFFFFFFFFFFFFFFFFFFFFFFFFF AND DUP2 JUMP JUMPDEST PUSH1 0x1 DUP1 SLOAD PUSH2 0x19A SWAP1 PUSH2 0x53B JUMP JUMPDEST DUP1 PUSH1 0x1F ADD PUSH1 0x20 DUP1 SWAP2 DIV MUL PUSH1 0x20 ADD PUSH1 0x40 MLOAD SWAP1 DUP2 ADD PUSH1 0x40 MSTORE DUP1 SWAP3 SWAP2 SWAP1 DUP2 DUP2 MSTORE PUSH1 0x20 ADD DUP3 DUP1 SLOAD PUSH2 0x1C6 SWAP1 PUSH2 0x53B JUMP JUMPDEST DUP1 ISZERO PUSH2 0x213 JUMPI DUP1 PUSH1 0x1F LT PUSH2 0x1E8 JUMPI PUSH2 0x100 DUP1 DUP4 SLOAD DIV MUL DUP4 MSTORE SWAP2 PUSH1 0x20 ADD SWAP2 PUSH2 0x213 JUMP JUMPDEST DUP3 ADD SWAP2 SWAP1 PUSH1 0x0 MSTORE PUSH1 0x20 PUSH1 0x0 KECCAK256 SWAP1 JUMPDEST DUP2 SLOAD DUP2 MSTORE SWAP1 PUSH1 0x1 ADD SWAP1 PUSH1 0x20 ADD DUP1 DUP4 GT PUSH2 0x1F6 JUMPI DUP3 SWAP1 SUB PUSH1 0x1F AND DUP3 ADD SWAP2 JUMPDEST POP POP POP POP POP DUP2 JUMP JUMPDEST PUSH1 0x0 DUP1 SLOAD SWAP1 PUSH2 0x100 EXP SWAP1 DIV PUSH1 0xFF AND DUP2 JUMP JUMPDEST PUSH1 0x0 PUSH1 0x40 MLOAD SWAP1 POP SWAP1 JUMP JUMPDEST PUSH1 0x0 DUP1 REVERT JUMPDEST PUSH1 0x0 DUP1 REVERT JUMPDEST PUSH1 0x0 DUP1 REVERT JUMPDEST PUSH1 0x0 DUP1 REVERT JUMPDEST PUSH1 0x0 PUSH1 0x1F NOT PUSH1 0x1F DUP4 ADD AND SWAP1 POP SWAP2 SWAP1 POP JUMP JUMPDEST PUSH32 0x4E487B7100000000000000000000000000000000000000000000000000000000 PUSH1 0x0 MSTORE PUSH1 0x41 PUSH1 0x4 MSTORE PUSH1 0x24 PUSH1 0x0 REVERT JUMPDEST PUSH2 0x293 DUP3 PUSH2 0x24A JUMP JUMPDEST DUP2 ADD DUP2 DUP2 LT PUSH8 0xFFFFFFFFFFFFFFFF DUP3 GT OR ISZERO PUSH2 0x2B2 JUMPI PUSH2 0x2B1 PUSH2 0x25B JUMP JUMPDEST JUMPDEST DUP1 PUSH1 0x40 MSTORE POP POP POP JUMP JUMPDEST PUSH1 0x0 PUSH2 0x2C5 PUSH2 0x22C JUMP JUMPDEST SWAP1 POP PUSH2 0x2D1 DUP3 DUP3 PUSH2 0x28A JUMP JUMPDEST SWAP2 SWAP1 POP JUMP JUMPDEST PUSH1 0x0 PUSH8 0xFFFFFFFFFFFFFFFF DUP3 GT ISZERO PUSH2 0x2F1 JUMPI PUSH2 0x2F0 PUSH2 0x25B JUMP JUMPDEST JUMPDEST PUSH2 0x2FA DUP3 PUSH2 0x24A JUMP JUMPDEST SWAP1 POP PUSH1 0x20 DUP2 ADD SWAP1 POP SWAP2 SWAP1 POP JUMP JUMPDEST DUP3 DUP2 DUP4 CALLDATACOPY PUSH1 0x0 DUP4 DUP4 ADD MSTORE POP POP POP JUMP JUMPDEST PUSH1 0x0 PUSH2 0x329 PUSH2 0x324 DUP5 PUSH2 0x2D6 JUMP JUMPDEST PUSH2 0x2BB JUMP JUMPDEST SWAP1 POP DUP3 DUP2 MSTORE PUSH1 0x20 DUP2 ADD DUP5 DUP5 DUP5 ADD GT ISZERO PUSH2 0x345 JUMPI PUSH2 0x344 PUSH2 0x245 JUMP JUMPDEST JUMPDEST PUSH2 0x350 DUP5 DUP3 DUP6 PUSH2 0x307 JUMP JUMPDEST POP SWAP4 SWAP3 POP POP POP JUMP JUMPDEST PUSH1 0x0 DUP3 PUSH1 0x1F DUP4 ADD SLT PUSH2 0x36D JUMPI PUSH2 0x36C PUSH2 0x240 JUMP JUMPDEST JUMPDEST DUP2 CALLDATALOAD PUSH2 0x37D DUP5 DUP3 PUSH1 0x20 DUP7 ADD PUSH2 0x316 JUMP JUMPDEST SWAP2 POP POP SWAP3 SWAP2 POP POP JUMP JUMPDEST PUSH1 0x0 PUSH1 0x20 DUP3 DUP5 SUB SLT ISZERO PUSH2 0x39C JUMPI PUSH2 0x39B PUSH2 0x236 JUMP JUMPDEST JUMPDEST PUSH1 0x0 DUP3 ADD CALLDATALOAD PUSH8 0xFFFFFFFFFFFFFFFF DUP2 GT ISZERO PUSH2 0x3BA JUMPI PUSH2 0x3B9 PUSH2 0x23B JUMP JUMPDEST JUMPDEST PUSH2 0x3C6 DUP5 DUP3 DUP6 ADD PUSH2 0x358 JUMP JUMPDEST SWAP2 POP POP SWAP3 SWAP2 POP POP JUMP JUMPDEST PUSH1 0x0 PUSH20 0xFFFFFFFFFFFFFFFFFFFFFFFFFFFFFFFFFFFFFFFF DUP3 AND SWAP1 POP SWAP2 SWAP1 POP JUMP JUMPDEST PUSH1 0x0 PUSH2 0x3FA DUP3 PUSH2 0x3CF JUMP JUMPDEST SWAP1 POP SWAP2 SWAP1 POP JUMP JUMPDEST PUSH2 0x40A DUP2 PUSH2 0x3EF JUMP JUMPDEST DUP3 MSTORE POP POP JUMP JUMPDEST PUSH1 0x0 PUSH1 0x20 DUP3 ADD SWAP1 POP PUSH2 0x425 PUSH1 0x0 DUP4 ADD DUP5 PUSH2 0x401 JUMP JUMPDEST SWAP3 SWAP2 POP POP JUMP JUMPDEST PUSH1 0x0 DUP2 MLOAD SWAP1 POP SWAP2 SWAP1 POP JUMP JUMPDEST PUSH1 0x0 DUP3 DUP3 MSTORE PUSH1 0x20 DUP3 ADD SWAP1 POP SWAP3 SWAP2 POP POP JUMP JUMPDEST PUSH1 0x0 JUMPDEST DUP4 DUP2 LT ISZERO PUSH2 0x465 JUMPI DUP1 DUP3 ADD MLOAD DUP2 DUP5 ADD MSTORE PUSH1 0x20 DUP2 ADD SWAP1 POP PUSH2 0x44A JUMP JUMPDEST DUP4 DUP2 GT ISZERO PUSH2 0x474 JUMPI PUSH1 0x0 DUP5 DUP5 ADD MSTORE JUMPDEST POP POP POP POP JUMP JUMPDEST PUSH1 0x0 PUSH2 0x485 DUP3 PUSH2 0x42B JUMP JUMPDEST PUSH2 0x48F DUP2 DUP6 PUSH2 0x436 JUMP JUMPDEST SWAP4 POP PUSH2 0x49F DUP2 DUP6 PUSH1 0x20 DUP7 ADD PUSH2 0x447 JUMP JUMPDEST PUSH2 0x4A8 DUP2 PUSH2 0x24A JUMP JUMPDEST DUP5 ADD SWAP2 POP POP SWAP3 SWAP2 POP POP JUMP JUMPDEST PUSH1 0x0 PUSH1 0x20 DUP3 ADD SWAP1 POP DUP2 DUP2 SUB PUSH1 0x0 DUP4 ADD MSTORE PUSH2 0x4CD DUP2 DUP5 PUSH2 0x47A JUMP JUMPDEST SWAP1 POP SWAP3 SWAP2 POP POP JUMP JUMPDEST PUSH1 0x0 PUSH1 0xFF DUP3 AND SWAP1 POP SWAP2 SWAP1 POP JUMP JUMPDEST PUSH2 0x4EB DUP2 PUSH2 0x4D5 JUMP JUMPDEST DUP3 MSTORE POP POP JUMP JUMPDEST PUSH1 0x0 PUSH1 0x20 DUP3 ADD SWAP1 POP PUSH2 0x506 PUSH1 0x0 DUP4 ADD DUP5 PUSH2 0x4E2 JUMP JUMPDEST SWAP3 SWAP2 POP POP JUMP JUMPDEST PUSH32 0x4E487B7100000000000000000000000000000000000000000000000000000000 PUSH1 0x0 MSTORE PUSH1 0x22 PUSH1 0x4 MSTORE PUSH1 0x24 PUSH1 0x0 REVERT JUMPDEST PUSH1 0x0 PUSH1 0x2 DUP3 DIV SWAP1 POP PUSH1 0x1 DUP3 AND DUP1 PUSH2 0x553 JUMPI PUSH1 0x7F DUP3 AND SWAP2 POP JUMPDEST PUSH1 0x20 DUP3 LT DUP2 SUB PUSH2 0x566 JUMPI PUSH2 0x565 PUSH2 0x50C JUMP JUMPDEST JUMPDEST POP SWAP2 SWAP1 POP JUMP JUMPDEST PUSH1 0x0 DUP2 SWAP1 POP DUP2 PUSH1 0x0 MSTORE PUSH1 0x20 PUSH1 0x0 KECCAK256 SWAP1 POP SWAP2 SWAP1 POP JUMP JUMPDEST PUSH1 0x0 PUSH1 0x20 PUSH1 0x1F DUP4 ADD DIV SWAP1 POP SWAP2 SWAP1 POP JUMP JUMPDEST PUSH1 0x0 DUP3 DUP3 SHL SWAP1 POP SWAP3 SWAP2 POP POP JUMP JUMPDEST PUSH1 0x0 PUSH1 0x8 DUP4 MUL PUSH2 0x5CE PUSH32 0xFFFFFFFFFFFFFFFFFFFFFFFFFFFFFFFFFFFFFFFFFFFFFFFFFFFFFFFFFFFFFFFF DUP3 PUSH2 0x591 JUMP JUMPDEST PUSH2 0x5D8 DUP7 DUP4 PUSH2 0x591 JUMP JUMPDEST SWAP6 POP DUP1 NOT DUP5 AND SWAP4 POP DUP1 DUP7 AND DUP5 OR SWAP3 POP POP POP SWAP4 SWAP3 POP POP POP JUMP JUMPDEST PUSH1 0x0 DUP2 SWAP1 POP SWAP2 SWAP1 POP JUMP JUMPDEST PUSH1 0x0 DUP2 SWAP1 POP SWAP2 SWAP1 POP JUMP JUMPDEST PUSH1 0x0 PUSH2 0x61F PUSH2 0x61A PUSH2 0x615 DUP5 PUSH2 0x5F0 JUMP JUMPDEST PUSH2 0x5FA JUMP JUMPDEST PUSH2 0x5F0 JUMP JUMPDEST SWAP1 POP SWAP2 SWAP1 POP JUMP JUMPDEST PUSH1 0x0 DUP2 SWAP1 POP SWAP2 SWAP1 POP JUMP JUMPDEST PUSH2 0x639 DUP4 PUSH2 0x604 JUMP JUMPDEST PUSH2 0x64D PUSH2 0x645 DUP3 PUSH2 0x626 JUMP JUMPDEST DUP5 DUP5 SLOAD PUSH2 0x59E JUMP JUMPDEST DUP3 SSTORE POP POP POP POP JUMP JUMPDEST PUSH1 0x0 SWAP1 JUMP JUMPDEST PUSH2 0x662 PUSH2 0x655 JUMP JUMPDEST PUSH2 0x66D DUP2 DUP5 DUP5 PUSH2 0x630 JUMP JUMPDEST POP POP POP JUMP JUMPDEST JUMPDEST DUP2 DUP2 LT ISZERO PUSH2 0x691 JUMPI PUSH2 0x686 PUSH1 0x0 DUP3 PUSH2 0x65A JUMP JUMPDEST PUSH1 0x1 DUP2 ADD SWAP1 POP PUSH2 0x673 JUMP JUMPDEST POP POP JUMP JUMPDEST PUSH1 0x1F DUP3 GT ISZERO PUSH2 0x6D6 JUMPI PUSH2 0x6A7 DUP2 PUSH2 0x56C JUMP JUMPDEST PUSH2 0x6B0 DUP5 PUSH2 0x581 JUMP JUMPDEST DUP2 ADD PUSH1 0x20 DUP6 LT ISZERO PUSH2 0x6BF JUMPI DUP2 SWAP1 POP JUMPDEST PUSH2 0x6D3 PUSH2 0x6CB DUP6 PUSH2 0x581 JUMP JUMPDEST DUP4 ADD DUP3 PUSH2 0x672 JUMP JUMPDEST POP POP JUMPDEST POP POP POP JUMP JUMPDEST PUSH1 0x0 DUP3 DUP3 SHR SWAP1 POP SWAP3 SWAP2 POP POP JUMP JUMPDEST PUSH1 0x0 PUSH2 0x6F9 PUSH1 0x0 NOT DUP5 PUSH1 0x8 MUL PUSH2 0x6DB JUMP JUMPDEST NOT DUP1 DUP4 AND SWAP2 POP POP SWAP3 SWAP2 POP POP JUMP JUMPDEST PUSH1 0x0 PUSH2 0x712 DUP4 DUP4 PUSH2 0x6E8 JUMP JUMPDEST SWAP2 POP DUP3 PUSH1 0x2 MUL DUP3 OR SWAP1 POP SWAP3 SWAP2 POP POP JUMP JUMPDEST PUSH2 0x72B DUP3 PUSH2 0x42B JUMP JUMPDEST PUSH8 0xFFFFFFFFFFFFFFFF DUP2 GT ISZERO PUSH2 0x744 JUMPI PUSH2 0x743 PUSH2 0x25B JUMP JUMPDEST JUMPDEST PUSH2 0x74E DUP3 SLOAD PUSH2 0x53B JUMP JUMPDEST PUSH2 0x759 DUP3 DUP3 DUP6 PUSH2 0x695 JUMP JUMPDEST PUSH1 0x0 PUSH1 0x20 SWAP1 POP PUSH1 0x1F DUP4 GT PUSH1 0x1 DUP2 EQ PUSH2 0x78C JUMPI PUSH1 0x0 DUP5 ISZERO PUSH2 0x77A JUMPI DUP3 DUP8 ADD MLOAD SWAP1 POP JUMPDEST PUSH2 0x784 DUP6 DUP3 PUSH2 0x706 JUMP JUMPDEST DUP7 SSTORE POP PUSH2 0x7EC JUMP JUMPDEST PUSH1 0x1F NOT DUP5 AND PUSH2 0x79A DUP7 PUSH2 0x56C JUMP JUMPDEST PUSH1 0x0 JUMPDEST DUP3 DUP2 LT ISZERO PUSH2 0x7C2 JUMPI DUP5 DUP10 ADD MLOAD DUP3 SSTORE PUSH1 0x1 DUP3 ADD SWAP2 POP PUSH1 0x20 DUP6 ADD SWAP5 POP PUSH1 0x20 DUP2 ADD SWAP1 POP PUSH2 0x79D JUMP JUMPDEST DUP7 DUP4 LT ISZERO PUSH2 0x7DF JUMPI DUP5 DUP10 ADD MLOAD PUSH2 0x7DB PUSH1 0x1F DUP10 AND DUP3 PUSH2 0x6E8 JUMP JUMPDEST DUP4 SSTORE POP JUMPDEST PUSH1 0x1 PUSH1 0x2 DUP9 MUL ADD DUP9 SSTORE POP POP POP JUMPDEST POP POP POP POP POP POP JUMP JUMPDEST PUSH32 0x4E487B7100000000000000000000000000000000000000000000000000000000 PUSH1 0x0 MSTORE PUSH1 0x11 PUSH1 0x4 MSTORE PUSH1 0x24 PUSH1 0x0 REVERT JUMPDEST PUSH1 0x0 PUSH2 0x82E DUP3 PUSH2 0x4D5 JUMP JUMPDEST SWAP2 POP PUSH1 0xFF DUP3 SUB PUSH2 0x841 JUMPI PUSH2 0x840 PUSH2 0x7F4 JUMP JUMPDEST JUMPDEST PUSH1 0x1 DUP3 ADD SWAP1 POP SWAP2 SWAP1 POP JUMP INVALID LOG2 PUSH5 0x6970667358 0x22 SLT KECCAK256 0xC8 SWAP16 0xE3 RETURNDATACOPY 0x2B MOD PUSH1 0xFE PUSH10 0x2C33B7520DCEB1CD5BC5 DIV GASLIMIT 0x2B 0xE0 0x1E 0xE6 0xDC 0xA6 SWAP5 0x27 0xDD CALLCODE SWAP16 PUSH5 0x736F6C6343 STOP ADDMOD 0xF STOP CALLER "
				},
				"gasEstimates": {
					"creation": {
						"codeDepositCost": "435600",
						"executionCost": "24790",
						"totalCost": "460390"
					},
					"external": {
						"changeCount()": "2512",
						"changeMessage(string)": "infinite",
						"message()": "infinite",
						"owner()": "2564"
					}
				},
				"methodIdentifiers": {
					"changeCount()": "f35f6447",
					"changeMessage(string)": "60fd1c4f",
					"message()": "e21f37ce",
					"owner()": "8da5cb5b"
				}
			},
			"storageLayout": {
				"storage": [
					{
						"astId": 3,
						"contract": "contracts/BlockchainMsgSender.sol:BlockchainMsgSender",
						"label": "changeCount",
						"offset": 0,
						"slot": "0",
						"type": "t_uint8"
					},
					{
						"astId": 5,
						"contract": "contracts/BlockchainMsgSender.sol:BlockchainMsgSender",
						"label": "owner",
						"offset": 1,
						"slot": "0",
						"type": "t_address"
					},
					{
						"astId": 7,
						"contract": "contracts/BlockchainMsgSender.sol:BlockchainMsgSender",
						"label": "message",
						"offset": 0,
						"slot": "1",
						"type": "t_string_storage"
					}
				],
				"types": {
					"t_address": {
						"encoding": "inplace",
						"label": "address",
						"numberOfBytes": "20"
					},
					"t_string_storage": {
						"encoding": "bytes",
						"label": "string",
						"numberOfBytes": "32"
					},
					"t_uint8": {
						"encoding": "inplace",
						"label": "uint8",
						"numberOfBytes": "1"
					}
				}
			},
			"userdoc": {
				"kind": "user",
				"methods": {},
				"version": 1
			}
		}
	}
}